{
  "contractName": "Auctions",
  "abi": [
    {
      "inputs": [],
      "stateMutability": "nonpayable",
      "type": "constructor"
    },
    {
      "anonymous": false,
      "inputs": [
        {
          "indexed": false,
          "internalType": "address",
          "name": "_owner",
          "type": "address"
        },
        {
          "indexed": false,
          "internalType": "uint256",
          "name": "_auctionId",
          "type": "uint256"
        }
      ],
      "name": "AuctionCreated",
      "type": "event"
    },
    {
      "anonymous": false,
      "inputs": [
        {
          "indexed": false,
          "internalType": "address",
          "name": "_owner",
          "type": "address"
        },
        {
          "indexed": false,
          "internalType": "uint256",
          "name": "_auctionId",
          "type": "uint256"
        }
      ],
      "name": "AuctionFinalized",
      "type": "event"
    },
    {
      "anonymous": false,
      "inputs": [
        {
          "indexed": false,
          "internalType": "address",
          "name": "buyer",
          "type": "address"
        },
        {
          "indexed": false,
          "internalType": "address",
          "name": "seller",
          "type": "address"
        },
        {
          "indexed": false,
          "internalType": "uint256",
          "name": "_price",
          "type": "uint256"
        }
      ],
      "name": "AuctionPayed",
      "type": "event"
    },
    {
      "stateMutability": "nonpayable",
      "type": "fallback"
    },
    {
      "inputs": [
        {
          "internalType": "address",
          "name": "",
          "type": "address"
        },
        {
          "internalType": "uint256",
          "name": "",
          "type": "uint256"
        }
      ],
      "name": "auctionOwner",
      "outputs": [
        {
          "internalType": "uint256",
          "name": "",
          "type": "uint256"
        }
      ],
      "stateMutability": "view",
      "type": "function",
      "constant": true
    },
    {
      "inputs": [
        {
          "internalType": "uint256",
          "name": "",
          "type": "uint256"
        }
      ],
      "name": "auctions",
      "outputs": [
        {
          "internalType": "string",
          "name": "name",
          "type": "string"
        },
        {
          "internalType": "uint256",
          "name": "price",
          "type": "uint256"
        },
        {
          "internalType": "uint256",
          "name": "tokenId",
          "type": "uint256"
        },
        {
          "internalType": "address",
          "name": "repoAddress",
          "type": "address"
        },
        {
          "internalType": "address",
          "name": "owner",
          "type": "address"
        },
        {
          "internalType": "bool",
          "name": "active",
          "type": "bool"
        },
        {
          "internalType": "bool",
          "name": "finalized",
          "type": "bool"
        }
      ],
      "stateMutability": "view",
      "type": "function",
      "constant": true
    },
    {
      "inputs": [],
      "name": "my_addr",
      "outputs": [
        {
          "internalType": "address",
          "name": "",
          "type": "address"
        }
      ],
      "stateMutability": "view",
      "type": "function",
      "constant": true
    },
    {
      "inputs": [],
      "name": "getaddr",
      "outputs": [
        {
          "internalType": "address",
          "name": "",
          "type": "address"
        }
      ],
      "stateMutability": "view",
      "type": "function",
      "constant": true
    },
    {
      "inputs": [],
      "name": "getBalance",
      "outputs": [
        {
          "internalType": "uint256",
          "name": "",
          "type": "uint256"
        }
      ],
      "stateMutability": "view",
      "type": "function",
      "constant": true
    },
    {
      "inputs": [],
      "name": "getCount",
      "outputs": [
        {
          "internalType": "uint256",
          "name": "",
          "type": "uint256"
        }
      ],
      "stateMutability": "view",
      "type": "function",
      "constant": true
    },
    {
      "inputs": [
        {
          "internalType": "address",
          "name": "_owner",
          "type": "address"
        }
      ],
      "name": "getAuctionsOf",
      "outputs": [
        {
          "internalType": "uint256[]",
          "name": "",
          "type": "uint256[]"
        }
      ],
      "stateMutability": "view",
      "type": "function",
      "constant": true
    },
    {
      "inputs": [
        {
          "internalType": "address",
          "name": "_owner",
          "type": "address"
        }
      ],
      "name": "getAuctionsCountOfOwner",
      "outputs": [
        {
          "internalType": "uint256",
          "name": "",
          "type": "uint256"
        }
      ],
      "stateMutability": "view",
      "type": "function",
      "constant": true
    },
    {
      "inputs": [
        {
          "internalType": "uint256",
          "name": "_auctionId",
          "type": "uint256"
        }
      ],
      "name": "getAuctionById",
      "outputs": [
        {
          "internalType": "string",
          "name": "name",
          "type": "string"
        },
        {
          "internalType": "uint256",
          "name": "price",
          "type": "uint256"
        },
        {
          "internalType": "uint256",
          "name": "tokenId",
          "type": "uint256"
        },
        {
          "internalType": "address",
          "name": "repoAddress",
          "type": "address"
        },
        {
          "internalType": "address",
          "name": "owner",
          "type": "address"
        },
        {
          "internalType": "bool",
          "name": "active",
          "type": "bool"
        },
        {
          "internalType": "bool",
          "name": "finalized",
          "type": "bool"
        }
      ],
      "stateMutability": "view",
      "type": "function",
      "constant": true
    },
    {
      "inputs": [
        {
          "internalType": "address",
          "name": "_repoAddress",
          "type": "address"
        },
        {
          "internalType": "uint256",
          "name": "_tokenId",
          "type": "uint256"
        },
        {
          "internalType": "string",
          "name": "_auctionTitle",
          "type": "string"
        },
        {
          "internalType": "uint256",
          "name": "_price",
          "type": "uint256"
        },
        {
          "internalType": "address",
          "name": "_owner",
          "type": "address"
        }
      ],
      "name": "createAuction",
      "outputs": [
        {
          "internalType": "bool",
          "name": "",
          "type": "bool"
        }
      ],
      "stateMutability": "nonpayable",
      "type": "function"
    },
    {
      "inputs": [
        {
          "internalType": "uint256",
          "name": "_auctionId",
          "type": "uint256"
        },
        {
          "internalType": "address",
          "name": "_to",
          "type": "address"
        }
      ],
      "name": "finalizeAuction",
      "outputs": [],
      "stateMutability": "payable",
      "type": "function",
      "payable": true
    },
    {
      "inputs": [
        {
          "internalType": "uint256",
          "name": "price",
          "type": "uint256"
        }
      ],
      "name": "buyAuction",
      "outputs": [],
      "stateMutability": "payable",
      "type": "function",
      "payable": true
    }
  ],
  "bytecode": "0x608060405234801561001057600080fd5b5033600260006101000a81548173ffffffffffffffffffffffffffffffffffffffff021916908373ffffffffffffffffffffffffffffffffffffffff16021790555061166d806100616000396000f3fe6080604052600436106100ab5760003560e01c8063b1b61bfa11610064578063b1b61bfa14610435578063bf498396146104db578063c8756cda1461060f578063d56aa5581461067e578063d69c8e17146106e3578063fd8acc421461073a576100ac565b806312065fe0146100be5780631626b759146100e957806318111ada14610137578063571a26a0146102755780638fb4aabf146103b3578063a87d942c1461040a576100ac565b5b3480156100b857600080fd5b50600080fd5b3480156100ca57600080fd5b506100d3610768565b6040518082815260200191505060405180910390f35b610135600480360360408110156100ff57600080fd5b8101908080359060200190929190803573ffffffffffffffffffffffffffffffffffffffff1690602001909291905050506107a9565b005b34801561014357600080fd5b506101706004803603602081101561015a57600080fd5b8101908080359060200190929190505050610b0f565b60405180806020018881526020018781526020018673ffffffffffffffffffffffffffffffffffffffff1673ffffffffffffffffffffffffffffffffffffffff1681526020018573ffffffffffffffffffffffffffffffffffffffff1673ffffffffffffffffffffffffffffffffffffffff1681526020018415151515815260200183151515158152602001828103825289818151815260200191508051906020019080838360005b83811015610234578082015181840152602081019050610219565b50505050905090810190601f1680156102615780820380516001836020036101000a031916815260200191505b509850505050505050505060405180910390f35b34801561028157600080fd5b506102ae6004803603602081101561029857600080fd5b8101908080359060200190929190505050610d22565b60405180806020018881526020018781526020018673ffffffffffffffffffffffffffffffffffffffff1673ffffffffffffffffffffffffffffffffffffffff1681526020018573ffffffffffffffffffffffffffffffffffffffff1673ffffffffffffffffffffffffffffffffffffffff1681526020018415151515815260200183151515158152602001828103825289818151815260200191508051906020019080838360005b83811015610372578082015181840152602081019050610357565b50505050905090810190601f16801561039f5780820380516001836020036101000a031916815260200191505b509850505050505050505060405180910390f35b3480156103bf57600080fd5b506103c8610e63565b604051808273ffffffffffffffffffffffffffffffffffffffff1673ffffffffffffffffffffffffffffffffffffffff16815260200191505060405180910390f35b34801561041657600080fd5b5061041f610e8d565b6040518082815260200191505060405180910390f35b34801561044157600080fd5b506104846004803603602081101561045857600080fd5b81019080803573ffffffffffffffffffffffffffffffffffffffff169060200190929190505050610e99565b6040518080602001828103825283818151815260200191508051906020019060200280838360005b838110156104c75780820151818401526020810190506104ac565b505050509050019250505060405180910390f35b3480156104e757600080fd5b506105f5600480360360a08110156104fe57600080fd5b81019080803573ffffffffffffffffffffffffffffffffffffffff169060200190929190803590602001909291908035906020019064010000000081111561054557600080fd5b82018360208201111561055757600080fd5b8035906020019184600183028401116401000000008311171561057957600080fd5b91908080601f016020809104026020016040519081016040528093929190818152602001838380828437600081840152601f19601f82011690508083019250505050505050919291929080359060200190929190803573ffffffffffffffffffffffffffffffffffffffff169060200190929190505050610f35565b604051808215151515815260200191505060405180910390f35b34801561061b57600080fd5b506106686004803603604081101561063257600080fd5b81019080803573ffffffffffffffffffffffffffffffffffffffff169060200190929190803590602001909291905050506112e3565b6040518082815260200191505060405180910390f35b34801561068a57600080fd5b506106cd600480360360208110156106a157600080fd5b81019080803573ffffffffffffffffffffffffffffffffffffffff169060200190929190505050611311565b6040518082815260200191505060405180910390f35b3480156106ef57600080fd5b506106f861135d565b604051808273ffffffffffffffffffffffffffffffffffffffff1673ffffffffffffffffffffffffffffffffffffffff16815260200191505060405180910390f35b6107666004803603602081101561075057600080fd5b8101908080359060200190929190505050611383565b005b6000600260009054906101000a900473ffffffffffffffffffffffffffffffffffffffff1673ffffffffffffffffffffffffffffffffffffffff1631905090565b6107b1611525565b600083815481106107be57fe5b90600052602060002090600502016040518060e0016040529081600082018054600181600116156101000203166002900480601f0160208091040260200160405190810160405280929190818152602001828054600181600116156101000203166002900480156108705780601f1061084557610100808354040283529160200191610870565b820191906000526020600020905b81548152906001019060200180831161085357829003601f168201915b5050505050815260200160018201548152602001600282015481526020016003820160009054906101000a900473ffffffffffffffffffffffffffffffffffffffff1673ffffffffffffffffffffffffffffffffffffffff1673ffffffffffffffffffffffffffffffffffffffff1681526020016004820160009054906101000a900473ffffffffffffffffffffffffffffffffffffffff1673ffffffffffffffffffffffffffffffffffffffff1673ffffffffffffffffffffffffffffffffffffffff1681526020016004820160149054906101000a900460ff161515151581526020016004820160159054906101000a900460ff16151515158152505090506109853083836060015184604001516113a0565b15610a6357600080848154811061099857fe5b906000526020600020906005020160040160146101000a81548160ff0219169083151502179055506001600084815481106109cf57fe5b906000526020600020906005020160040160156101000a81548160ff0219169083151502179055507f357afab190ee87fe0ef1c717f2728d2904d9e415a069d99f4d9382873cb3279d3384604051808373ffffffffffffffffffffffffffffffffffffffff1673ffffffffffffffffffffffffffffffffffffffff1681526020018281526020019250505060405180910390a15b7ff21e4e6ae2bbd9bb251e47cec5bc13ba7683da6cd04eebb36f1074aa6b291eca3382608001518360200151604051808473ffffffffffffffffffffffffffffffffffffffff1673ffffffffffffffffffffffffffffffffffffffff1681526020018373ffffffffffffffffffffffffffffffffffffffff1673ffffffffffffffffffffffffffffffffffffffff168152602001828152602001935050505060405180910390a1505050565b6060600080600080600080610b22611525565b60008981548110610b2f57fe5b90600052602060002090600502016040518060e0016040529081600082018054600181600116156101000203166002900480601f016020809104026020016040519081016040528092919081815260200182805460018160011615610100020316600290048015610be15780601f10610bb657610100808354040283529160200191610be1565b820191906000526020600020905b815481529060010190602001808311610bc457829003601f168201915b5050505050815260200160018201548152602001600282015481526020016003820160009054906101000a900473ffffffffffffffffffffffffffffffffffffffff1673ffffffffffffffffffffffffffffffffffffffff1673ffffffffffffffffffffffffffffffffffffffff1681526020016004820160009054906101000a900473ffffffffffffffffffffffffffffffffffffffff1673ffffffffffffffffffffffffffffffffffffffff1673ffffffffffffffffffffffffffffffffffffffff1681526020016004820160149054906101000a900460ff161515151581526020016004820160159054906101000a900460ff1615151515815250509050806000015181602001518260400151836060015184608001518560a001518660c00151869650975097509750975097509750975050919395979092949650565b60008181548110610d2f57fe5b9060005260206000209060050201600091509050806000018054600181600116156101000203166002900480601f016020809104026020016040519081016040528092919081815260200182805460018160011615610100020316600290048015610ddb5780601f10610db057610100808354040283529160200191610ddb565b820191906000526020600020905b815481529060010190602001808311610dbe57829003601f168201915b5050505050908060010154908060020154908060030160009054906101000a900473ffffffffffffffffffffffffffffffffffffffff16908060040160009054906101000a900473ffffffffffffffffffffffffffffffffffffffff16908060040160149054906101000a900460ff16908060040160159054906101000a900460ff16905087565b6000600260009054906101000a900473ffffffffffffffffffffffffffffffffffffffff16905090565b60008080549050905090565b606080600160008473ffffffffffffffffffffffffffffffffffffffff1673ffffffffffffffffffffffffffffffffffffffff168152602001908152602001600020805480602002602001604051908101604052809291908181526020018280548015610f2557602002820191906000526020600020905b815481526020019060010190808311610f11575b5050505050905080915050919050565b6000858560008273ffffffffffffffffffffffffffffffffffffffff16636352211e836040518263ffffffff1660e01b81526004018082815260200191505060206040518083038186803b158015610f8c57600080fd5b505afa158015610fa0573d6000803e3d6000fd5b505050506040513d6020811015610fb657600080fd5b810190808051906020019092919050505090503073ffffffffffffffffffffffffffffffffffffffff168173ffffffffffffffffffffffffffffffffffffffff161461100157600080fd5b600080805490509050611012611525565b88816000018190525087816020018181525050898160400181815250508a816060019073ffffffffffffffffffffffffffffffffffffffff16908173ffffffffffffffffffffffffffffffffffffffff168152505086816080019073ffffffffffffffffffffffffffffffffffffffff16908173ffffffffffffffffffffffffffffffffffffffff168152505060018160a001901515908115158152505060008160c001901515908115158152505060008190806001815401808255809150506001900390600052602060002090600502016000909190919091506000820151816000019080519060200190611109929190611592565b50602082015181600101556040820151816002015560608201518160030160006101000a81548173ffffffffffffffffffffffffffffffffffffffff021916908373ffffffffffffffffffffffffffffffffffffffff16021790555060808201518160040160006101000a81548173ffffffffffffffffffffffffffffffffffffffff021916908373ffffffffffffffffffffffffffffffffffffffff16021790555060a08201518160040160146101000a81548160ff02191690831515021790555060c08201518160040160156101000a81548160ff021916908315150217905550505060008080549050141561120057600080fd5b600160008873ffffffffffffffffffffffffffffffffffffffff1673ffffffffffffffffffffffffffffffffffffffff1681526020019081526020016000208290806001815401808255809150506001900390600052602060002001600090919091909150557f3249a06bd478adf780bb7930214ad005e9cfa517d63221c0b77f27199d1a58b33383604051808373ffffffffffffffffffffffffffffffffffffffff1673ffffffffffffffffffffffffffffffffffffffff1681526020018281526020019250505060405180910390a160019550505050505095945050505050565b600160205281600052604060002081815481106112fc57fe5b90600052602060002001600091509150505481565b6000600160008373ffffffffffffffffffffffffffffffffffffffff1673ffffffffffffffffffffffffffffffffffffffff168152602001908152602001600020805490509050919050565b600260009054906101000a900473ffffffffffffffffffffffffffffffffffffffff1681565b60007380f9e0792e708ada65ff57398b2a2a72709b948d90505050565b6000808390508073ffffffffffffffffffffffffffffffffffffffff1663095ea7b386856040518363ffffffff1660e01b8152600401808373ffffffffffffffffffffffffffffffffffffffff1673ffffffffffffffffffffffffffffffffffffffff16815260200182815260200192505050600060405180830381600087803b15801561142d57600080fd5b505af1158015611441573d6000803e3d6000fd5b505050508073ffffffffffffffffffffffffffffffffffffffff166323b872dd8787866040518463ffffffff1660e01b8152600401808473ffffffffffffffffffffffffffffffffffffffff1673ffffffffffffffffffffffffffffffffffffffff1681526020018373ffffffffffffffffffffffffffffffffffffffff1673ffffffffffffffffffffffffffffffffffffffff1681526020018281526020019350505050600060405180830381600087803b15801561150057600080fd5b505af1158015611514573d6000803e3d6000fd5b505050506001915050949350505050565b6040518060e00160405280606081526020016000815260200160008152602001600073ffffffffffffffffffffffffffffffffffffffff168152602001600073ffffffffffffffffffffffffffffffffffffffff1681526020016000151581526020016000151581525090565b828054600181600116156101000203166002900490600052602060002090601f016020900481019282601f106115d357805160ff1916838001178555611601565b82800160010185558215611601579182015b828111156116005782518255916020019190600101906115e5565b5b50905061160e9190611612565b5090565b61163491905b80821115611630576000816000905550600101611618565b5090565b9056fea2646970667358221220ed9e3a24695be62271ba78bf0c6c352732ef3be0893eea66c131a81c497630c964736f6c63430006020033",
  "source": "pragma solidity  >=0.6.0;\r\n\r\nimport \"./MyNFT.sol\";\r\nimport \"@openzeppelin/contracts/token/ERC721/ERC721.sol\";\r\n\r\ncontract Auctions {\r\n\tAuction[] public auctions;\t\t//옥션을 저장하는 배열\r\n \tmapping(address => uint[]) public auctionOwner; \t//소유자 어드레스가 가지고 있는 토큰id\r\n    address public my_addr;\r\n\r\n\tstruct Auction {\r\n\t  string name; // 제목\r\n\t  uint256 price; // 가격\r\n\t//   string metadata; // 메타데이터 : ipfs hash\r\n\t  uint256 tokenId; // 토큰 아이디\r\n\t  address repoAddress; // nft 컨트랙트 어드레스\r\n\t  address owner; // 소유자\t(옥션 소유자)\t\t\t\r\n\t  bool active; //활성화 여부\r\n\t  bool finalized; //판매 종료여부\r\n\t}\r\n\tconstructor() public {\r\n\t\t\tmy_addr = msg.sender; // 현재 생성한 계정값.(주소형), 이 컨트랙의 주인은 현재 배포 계정이다. 라는 뜻.\r\n\t\t}\r\n\tfunction getaddr() public view returns (address) {\r\n\t\treturn my_addr;\r\n\t}\r\n\tfunction getBalance() public view returns (uint256) {\r\n\t\treturn my_addr.balance;\r\n\t\t}\r\n    function getCount() public view  returns(uint) {\r\n\t\treturn auctions.length;\r\n\t}\r\n\r\n\tfunction getAuctionsOf(address _owner) public  view returns(uint[] memory) {\r\n\t\tuint[] memory ownedAuctions = auctionOwner[_owner];\r\n\t\treturn ownedAuctions;\r\n\t}\r\n\r\n\tfunction getAuctionsCountOfOwner(address _owner) public view returns(uint) {\r\n\t\treturn auctionOwner[_owner].length;\r\n\t}\r\n\r\n\tfunction getAuctionById(uint _auctionId) public view returns(\r\n\t\tstring memory name,\r\n\t\tuint256 price,\r\n\t\t// string metadata,\r\n\t\tuint256 tokenId,\r\n\t\taddress repoAddress,\r\n\t\taddress owner,\r\n\t\tbool active,\r\n\t\tbool finalized) {\r\n\t\tAuction memory auc = auctions[_auctionId];\r\n\t\treturn (\r\n\t\t\tauc.name,\r\n\t\t\tauc.price,\r\n\t\t\t// auc.metadata,\r\n\t\t\tauc.tokenId,\r\n\t\t\tauc.repoAddress,\r\n\t\t\tauc.owner,\r\n\t\t\tauc.active,\r\n\t\t\tauc.finalized);\r\n\t}\r\n\r\n\tfallback() external {\r\n\t  revert();\r\n\t}\r\n\r\n\tmodifier contractIsNFTOwner(address _repoAddress, uint256 _tokenId) {\r\n\t//해당 contract가 특정 nft 소유권을 가지고 있는지 확인하는 modifier\r\n\t  address nftOwner = MyNFT(_repoAddress).ownerOf(_tokenId);\r\n\t  // import한 MyNFT에 contract address를 넣고, ownerOf(tokenId) 함수로 해당 토큰의 소유자 어드레스를 가져옴\r\n\t  require(nftOwner == address(this)); //require를 통해 일치하면 다음 프로세스 진행\r\n\t  // address(this)는 contract의 address 반환하는 함수\r\n\t  _;\r\n\t}\r\n\r\n\tfunction createAuction(address _repoAddress, uint256 _tokenId, string memory _auctionTitle, uint256 _price, address _owner) public contractIsNFTOwner(_repoAddress, _tokenId) returns(bool) {\r\n\t\t// 새 auction을 생성하는 함수\r\n\t\tuint auctionId = auctions.length;\r\n\t\tAuction memory newAuction;\r\n\t\tnewAuction.name = _auctionTitle;\r\n\t\tnewAuction.price = _price;\r\n\t\t// newAuction.metadata = _metadata;\r\n\t\tnewAuction.tokenId = _tokenId;\r\n\t\tnewAuction.repoAddress = _repoAddress;\r\n\t\tnewAuction.owner = _owner;\r\n\t\tnewAuction.active = true;\r\n        newAuction.finalized = false;\r\n\r\n\t\tauctions.push(newAuction);\r\n\t\trequire(auctions.length != 0);\r\n\t\tauctionOwner[_owner].push(auctionId);\r\n\r\n\t\temit AuctionCreated(msg.sender, auctionId);\r\n\t\treturn true;\r\n\t}\r\n\r\n\tfunction finalizeAuction(uint _auctionId, address  _to) public payable {\r\n\t\t//auction을 소유자에게 전달하는 함수\r\n\t\tAuction memory myAuction = auctions[_auctionId];\r\n\t\tif(approveAndTransfer(address(this), _to, myAuction.repoAddress, myAuction.tokenId)){\r\n\t\t\t//받는 어드레스에 소유권이 승인되고 전달되는 함수, 여기가 완료되면 해당 옥션의 상태가 종료로 바뀜\r\n\t\t\t//그 다음 auctionfinalized 이벤트를 송출함\r\n\t\t    auctions[_auctionId].active = false;\r\n\t\t    auctions[_auctionId].finalized = true;\r\n\t\t\t//_to.transfer(auctions[_auctionId].price);\r\n\t\t    emit AuctionFinalized(msg.sender, _auctionId);\r\n\t\t}\r\n\t\t\r\n\t\t//buyAuction();\r\n\t\temit AuctionPayed(msg.sender, myAuction.owner, myAuction.price);\r\n\t\t//옥션 소유자를 구매자 주소로 넣음\r\n\t\t//auctions[_auctionId].owner = msg.sender;\r\n\t}\r\n\r\n//***************************** 채연 테스트 함수 */\r\n\r\n   // blockchain에 저장되는 중요 함수.\r\n    function buyAuction( uint price) public payable {\r\n\t\t// owner = auction을 올린 계정\r\n        // _auctionId = msg.sender;\r\n        // owner에게 매입가를 전송함.\r\n\t\taddress _to = 0x80f9e0792e708aDA65FF57398b2a2A72709B948D;\r\n        //_to.transfer(msg.value); //이게 작동해서 첫번째 계정으로 송금되고, 두번째 계정이 깎임.\r\n        //emit LogBuyRealEstate(msg.sender, _id);\r\n\r\n    }\r\n\r\n\r\n\r\n//@@@@@@@@@@@@@@@@@@@@@@@@@@@@@@@@@@@@@@@@@@@@@@@@@@@@@@@@@@@@@@@@@@@@@@@@@@@@@@2\r\n\tfunction approveAndTransfer(address _from, address _to, address _repoAddress, uint256 _tokenId) internal returns(bool)  {\r\n\t\t// internal 함수, 컨트랙트 내부에서만 호출 가능\r\n\t\tMyNFT remoteContract = MyNFT(_repoAddress);\r\n\t\t// myNFT 컨트랙트에  컨트랙트 address를 넣고, 인스턴스를 가져온 후, 인스턴스의 approve(_to, _tokenId)를 통해 해당 토큰을 받는 어드레스(_to)를 승인\r\n\t\t// transferFrom을 통해 해당 어드레스로 전송한다.\r\n\t\tremoteContract.approve(_to, _tokenId);\r\n\t\tremoteContract.transferFrom(_from, _to, _tokenId);\r\n\t\t//remoteContract.transferFrom(_from, _to, _price);\r\n\t\treturn true;\r\n\t}\r\n\r\n\tevent AuctionPayed(address buyer, address seller, uint _price);\r\n\tevent AuctionCreated(address _owner, uint _auctionId);\r\n\tevent AuctionFinalized(address _owner, uint _auctionId); //거래가 끝난 후 송출되는 이벤트\r\n}",
  "sourcePath": "C:/Users/pc/SmartContract/contracts/Auctions.sol",
  "compiler": {
    "name": "solc",
    "version": "0.6.2+commit.bacdbe57.Emscripten.clang"
  },
  "schemaVersion": "3.2.4",
  "updatedAt": "2020-10-06T13:05:49.319Z",
  "networkType": "ethereum",
  "devdoc": {
    "methods": {}
  },
  "userdoc": {
    "methods": {}
  }
}