{
  "contractName": "Auctions",
  "abi": [
    {
      "inputs": [],
      "stateMutability": "nonpayable",
      "type": "constructor"
    },
    {
      "anonymous": false,
      "inputs": [
        {
          "indexed": false,
          "internalType": "address",
          "name": "_owner",
          "type": "address"
        },
        {
          "indexed": false,
          "internalType": "uint256",
          "name": "_auctionId",
          "type": "uint256"
        }
      ],
      "name": "AuctionCreated",
      "type": "event"
    },
    {
      "anonymous": false,
      "inputs": [
        {
          "indexed": false,
          "internalType": "address",
          "name": "_owner",
          "type": "address"
        },
        {
          "indexed": false,
          "internalType": "uint256",
          "name": "_auctionId",
          "type": "uint256"
        }
      ],
      "name": "AuctionFinalized",
      "type": "event"
    },
    {
      "anonymous": false,
      "inputs": [
        {
          "indexed": false,
          "internalType": "address",
          "name": "buyer",
          "type": "address"
        },
        {
          "indexed": false,
          "internalType": "address",
          "name": "seller",
          "type": "address"
        },
        {
          "indexed": false,
          "internalType": "uint256",
          "name": "_price",
          "type": "uint256"
        }
      ],
      "name": "AuctionPayed",
      "type": "event"
    },
    {
      "stateMutability": "nonpayable",
      "type": "fallback"
    },
    {
      "inputs": [
        {
          "internalType": "address",
          "name": "",
          "type": "address"
        },
        {
          "internalType": "uint256",
          "name": "",
          "type": "uint256"
        }
      ],
      "name": "auctionOwner",
      "outputs": [
        {
          "internalType": "uint256",
          "name": "",
          "type": "uint256"
        }
      ],
      "stateMutability": "view",
      "type": "function",
      "constant": true
    },
    {
      "inputs": [
        {
          "internalType": "uint256",
          "name": "",
          "type": "uint256"
        }
      ],
      "name": "auctions",
      "outputs": [
        {
          "internalType": "string",
          "name": "name",
          "type": "string"
        },
        {
          "internalType": "uint256",
          "name": "price",
          "type": "uint256"
        },
        {
          "internalType": "uint256",
          "name": "tokenId",
          "type": "uint256"
        },
        {
          "internalType": "address",
          "name": "repoAddress",
          "type": "address"
        },
        {
          "internalType": "address",
          "name": "owner",
          "type": "address"
        },
        {
          "internalType": "bool",
          "name": "active",
          "type": "bool"
        },
        {
          "internalType": "bool",
          "name": "finalized",
          "type": "bool"
        }
      ],
      "stateMutability": "view",
      "type": "function",
      "constant": true
    },
    {
      "inputs": [],
      "name": "my_addr",
      "outputs": [
        {
          "internalType": "address",
          "name": "",
          "type": "address"
        }
      ],
      "stateMutability": "view",
      "type": "function",
      "constant": true
    },
    {
      "inputs": [],
      "name": "getBalance",
      "outputs": [
        {
          "internalType": "uint256",
          "name": "",
          "type": "uint256"
        }
      ],
      "stateMutability": "view",
      "type": "function",
      "constant": true
    },
    {
      "inputs": [
        {
          "internalType": "address",
          "name": "_repoAddress",
          "type": "address"
        },
        {
          "internalType": "uint256",
          "name": "_tokenId",
          "type": "uint256"
        },
        {
          "internalType": "string",
          "name": "_auctionTitle",
          "type": "string"
        },
        {
          "internalType": "uint256",
          "name": "_price",
          "type": "uint256"
        }
      ],
      "name": "createAuction",
      "outputs": [
        {
          "internalType": "bool",
          "name": "",
          "type": "bool"
        }
      ],
      "stateMutability": "nonpayable",
      "type": "function"
    },
    {
      "inputs": [
        {
          "internalType": "uint256",
          "name": "_auctionId",
          "type": "uint256"
        },
        {
          "internalType": "address",
          "name": "_to",
          "type": "address"
        }
      ],
      "name": "finalizeAuction",
      "outputs": [],
      "stateMutability": "payable",
      "type": "function",
      "payable": true
    },
    {
      "inputs": [
        {
          "internalType": "uint256",
          "name": "price",
          "type": "uint256"
        }
      ],
      "name": "buyAuction",
      "outputs": [],
      "stateMutability": "payable",
      "type": "function",
      "payable": true
    },
    {
      "inputs": [],
      "name": "getCount",
      "outputs": [
        {
          "internalType": "uint256",
          "name": "",
          "type": "uint256"
        }
      ],
      "stateMutability": "nonpayable",
      "type": "function"
    },
    {
      "inputs": [
        {
          "internalType": "address",
          "name": "_owner",
          "type": "address"
        }
      ],
      "name": "getAuctionsOf",
      "outputs": [
        {
          "internalType": "uint256[]",
          "name": "",
          "type": "uint256[]"
        }
      ],
      "stateMutability": "nonpayable",
      "type": "function"
    },
    {
      "inputs": [
        {
          "internalType": "address",
          "name": "_owner",
          "type": "address"
        }
      ],
      "name": "getAuctionsCountOfOwner",
      "outputs": [
        {
          "internalType": "uint256",
          "name": "",
          "type": "uint256"
        }
      ],
      "stateMutability": "nonpayable",
      "type": "function"
    },
    {
      "inputs": [
        {
          "internalType": "uint256",
          "name": "_auctionId",
          "type": "uint256"
        }
      ],
      "name": "getAuctionById",
      "outputs": [
        {
          "internalType": "string",
          "name": "name",
          "type": "string"
        },
        {
          "internalType": "uint256",
          "name": "price",
          "type": "uint256"
        },
        {
          "internalType": "uint256",
          "name": "tokenId",
          "type": "uint256"
        },
        {
          "internalType": "address",
          "name": "repoAddress",
          "type": "address"
        },
        {
          "internalType": "address",
          "name": "owner",
          "type": "address"
        },
        {
          "internalType": "bool",
          "name": "active",
          "type": "bool"
        },
        {
          "internalType": "bool",
          "name": "finalized",
          "type": "bool"
        }
      ],
      "stateMutability": "nonpayable",
      "type": "function"
    }
  ],
  "bytecode": "0x608060405234801561001057600080fd5b5033600260006101000a81548173ffffffffffffffffffffffffffffffffffffffff021916908373ffffffffffffffffffffffffffffffffffffffff1602179055506115ae806100616000396000f3fe6080604052600436106100a05760003560e01c8063a87d942c11610064578063a87d942c146104bc578063b1b61bfa146104e7578063c8756cda1461058d578063d56aa558146105fc578063d69c8e1714610661578063fd8acc42146106b8576100a1565b806312065fe0146100b35780631626b759146100de57806318111ada1461012c578063481ca8c41461026a578063571a26a01461037e576100a1565b5b3480156100ad57600080fd5b50600080fd5b3480156100bf57600080fd5b506100c86106e6565b6040518082815260200191505060405180910390f35b61012a600480360360408110156100f457600080fd5b8101908080359060200190929190803573ffffffffffffffffffffffffffffffffffffffff169060200190929190505050610727565b005b34801561013857600080fd5b506101656004803603602081101561014f57600080fd5b8101908080359060200190929190505050610a8d565b60405180806020018881526020018781526020018673ffffffffffffffffffffffffffffffffffffffff1673ffffffffffffffffffffffffffffffffffffffff1681526020018573ffffffffffffffffffffffffffffffffffffffff1673ffffffffffffffffffffffffffffffffffffffff1681526020018415151515815260200183151515158152602001828103825289818151815260200191508051906020019080838360005b8381101561022957808201518184015260208101905061020e565b50505050905090810190601f1680156102565780820380516001836020036101000a031916815260200191505b509850505050505050505060405180910390f35b34801561027657600080fd5b506103646004803603608081101561028d57600080fd5b81019080803573ffffffffffffffffffffffffffffffffffffffff16906020019092919080359060200190929190803590602001906401000000008111156102d457600080fd5b8201836020820111156102e657600080fd5b8035906020019184600183028401116401000000008311171561030857600080fd5b91908080601f016020809104026020016040519081016040528093929190818152602001838380828437600081840152601f19601f82011690508083019250505050505050919291929080359060200190929190505050610ca0565b604051808215151515815260200191505060405180910390f35b34801561038a57600080fd5b506103b7600480360360208110156103a157600080fd5b810190808035906020019092919050505061103b565b60405180806020018881526020018781526020018673ffffffffffffffffffffffffffffffffffffffff1673ffffffffffffffffffffffffffffffffffffffff1681526020018573ffffffffffffffffffffffffffffffffffffffff1673ffffffffffffffffffffffffffffffffffffffff1681526020018415151515815260200183151515158152602001828103825289818151815260200191508051906020019080838360005b8381101561047b578082015181840152602081019050610460565b50505050905090810190601f1680156104a85780820380516001836020036101000a031916815260200191505b509850505050505050505060405180910390f35b3480156104c857600080fd5b506104d161117c565b6040518082815260200191505060405180910390f35b3480156104f357600080fd5b506105366004803603602081101561050a57600080fd5b81019080803573ffffffffffffffffffffffffffffffffffffffff169060200190929190505050611188565b6040518080602001828103825283818151815260200191508051906020019060200280838360005b8381101561057957808201518184015260208101905061055e565b505050509050019250505060405180910390f35b34801561059957600080fd5b506105e6600480360360408110156105b057600080fd5b81019080803573ffffffffffffffffffffffffffffffffffffffff16906020019092919080359060200190929190505050611224565b6040518082815260200191505060405180910390f35b34801561060857600080fd5b5061064b6004803603602081101561061f57600080fd5b81019080803573ffffffffffffffffffffffffffffffffffffffff169060200190929190505050611252565b6040518082815260200191505060405180910390f35b34801561066d57600080fd5b5061067661129e565b604051808273ffffffffffffffffffffffffffffffffffffffff1673ffffffffffffffffffffffffffffffffffffffff16815260200191505060405180910390f35b6106e4600480360360208110156106ce57600080fd5b81019080803590602001909291905050506112c4565b005b6000600260009054906101000a900473ffffffffffffffffffffffffffffffffffffffff1673ffffffffffffffffffffffffffffffffffffffff1631905090565b61072f611466565b6000838154811061073c57fe5b90600052602060002090600502016040518060e0016040529081600082018054600181600116156101000203166002900480601f0160208091040260200160405190810160405280929190818152602001828054600181600116156101000203166002900480156107ee5780601f106107c3576101008083540402835291602001916107ee565b820191906000526020600020905b8154815290600101906020018083116107d157829003601f168201915b5050505050815260200160018201548152602001600282015481526020016003820160009054906101000a900473ffffffffffffffffffffffffffffffffffffffff1673ffffffffffffffffffffffffffffffffffffffff1673ffffffffffffffffffffffffffffffffffffffff1681526020016004820160009054906101000a900473ffffffffffffffffffffffffffffffffffffffff1673ffffffffffffffffffffffffffffffffffffffff1673ffffffffffffffffffffffffffffffffffffffff1681526020016004820160149054906101000a900460ff161515151581526020016004820160159054906101000a900460ff16151515158152505090506109033083836060015184604001516112e1565b156109e157600080848154811061091657fe5b906000526020600020906005020160040160146101000a81548160ff02191690831515021790555060016000848154811061094d57fe5b906000526020600020906005020160040160156101000a81548160ff0219169083151502179055507f357afab190ee87fe0ef1c717f2728d2904d9e415a069d99f4d9382873cb3279d3384604051808373ffffffffffffffffffffffffffffffffffffffff1673ffffffffffffffffffffffffffffffffffffffff1681526020018281526020019250505060405180910390a15b7ff21e4e6ae2bbd9bb251e47cec5bc13ba7683da6cd04eebb36f1074aa6b291eca3382608001518360200151604051808473ffffffffffffffffffffffffffffffffffffffff1673ffffffffffffffffffffffffffffffffffffffff1681526020018373ffffffffffffffffffffffffffffffffffffffff1673ffffffffffffffffffffffffffffffffffffffff168152602001828152602001935050505060405180910390a1505050565b6060600080600080600080610aa0611466565b60008981548110610aad57fe5b90600052602060002090600502016040518060e0016040529081600082018054600181600116156101000203166002900480601f016020809104026020016040519081016040528092919081815260200182805460018160011615610100020316600290048015610b5f5780601f10610b3457610100808354040283529160200191610b5f565b820191906000526020600020905b815481529060010190602001808311610b4257829003601f168201915b5050505050815260200160018201548152602001600282015481526020016003820160009054906101000a900473ffffffffffffffffffffffffffffffffffffffff1673ffffffffffffffffffffffffffffffffffffffff1673ffffffffffffffffffffffffffffffffffffffff1681526020016004820160009054906101000a900473ffffffffffffffffffffffffffffffffffffffff1673ffffffffffffffffffffffffffffffffffffffff1673ffffffffffffffffffffffffffffffffffffffff1681526020016004820160149054906101000a900460ff161515151581526020016004820160159054906101000a900460ff1615151515815250509050806000015181602001518260400151836060015184608001518560a001518660c00151869650975097509750975097509750975050919395979092949650565b6000848460008273ffffffffffffffffffffffffffffffffffffffff16636352211e836040518263ffffffff1660e01b81526004018082815260200191505060206040518083038186803b158015610cf757600080fd5b505afa158015610d0b573d6000803e3d6000fd5b505050506040513d6020811015610d2157600080fd5b810190808051906020019092919050505090503073ffffffffffffffffffffffffffffffffffffffff168173ffffffffffffffffffffffffffffffffffffffff1614610d6c57600080fd5b600080805490509050610d7d611466565b878160000181905250868160200181815250508881604001818152505089816060019073ffffffffffffffffffffffffffffffffffffffff16908173ffffffffffffffffffffffffffffffffffffffff168152505033816080019073ffffffffffffffffffffffffffffffffffffffff16908173ffffffffffffffffffffffffffffffffffffffff168152505060018160a001901515908115158152505060008160c001901515908115158152505060008190806001815401808255809150506001900390600052602060002090600502016000909190919091506000820151816000019080519060200190610e749291906114d3565b50602082015181600101556040820151816002015560608201518160030160006101000a81548173ffffffffffffffffffffffffffffffffffffffff021916908373ffffffffffffffffffffffffffffffffffffffff16021790555060808201518160040160006101000a81548173ffffffffffffffffffffffffffffffffffffffff021916908373ffffffffffffffffffffffffffffffffffffffff16021790555060a08201518160040160146101000a81548160ff02191690831515021790555060c08201518160040160156101000a81548160ff0219169083151502179055505050600160003373ffffffffffffffffffffffffffffffffffffffff1673ffffffffffffffffffffffffffffffffffffffff1681526020019081526020016000208290806001815401808255809150506001900390600052602060002001600090919091909150557f3249a06bd478adf780bb7930214ad005e9cfa517d63221c0b77f27199d1a58b33383604051808373ffffffffffffffffffffffffffffffffffffffff1673ffffffffffffffffffffffffffffffffffffffff1681526020018281526020019250505060405180910390a1600195505050505050949350505050565b6000818154811061104857fe5b9060005260206000209060050201600091509050806000018054600181600116156101000203166002900480601f0160208091040260200160405190810160405280929190818152602001828054600181600116156101000203166002900480156110f45780601f106110c9576101008083540402835291602001916110f4565b820191906000526020600020905b8154815290600101906020018083116110d757829003601f168201915b5050505050908060010154908060020154908060030160009054906101000a900473ffffffffffffffffffffffffffffffffffffffff16908060040160009054906101000a900473ffffffffffffffffffffffffffffffffffffffff16908060040160149054906101000a900460ff16908060040160159054906101000a900460ff16905087565b60008080549050905090565b606080600160008473ffffffffffffffffffffffffffffffffffffffff1673ffffffffffffffffffffffffffffffffffffffff16815260200190815260200160002080548060200260200160405190810160405280929190818152602001828054801561121457602002820191906000526020600020905b815481526020019060010190808311611200575b5050505050905080915050919050565b6001602052816000526040600020818154811061123d57fe5b90600052602060002001600091509150505481565b6000600160008373ffffffffffffffffffffffffffffffffffffffff1673ffffffffffffffffffffffffffffffffffffffff168152602001908152602001600020805490509050919050565b600260009054906101000a900473ffffffffffffffffffffffffffffffffffffffff1681565b60007380f9e0792e708ada65ff57398b2a2a72709b948d90505050565b6000808390508073ffffffffffffffffffffffffffffffffffffffff1663095ea7b386856040518363ffffffff1660e01b8152600401808373ffffffffffffffffffffffffffffffffffffffff1673ffffffffffffffffffffffffffffffffffffffff16815260200182815260200192505050600060405180830381600087803b15801561136e57600080fd5b505af1158015611382573d6000803e3d6000fd5b505050508073ffffffffffffffffffffffffffffffffffffffff166323b872dd8787866040518463ffffffff1660e01b8152600401808473ffffffffffffffffffffffffffffffffffffffff1673ffffffffffffffffffffffffffffffffffffffff1681526020018373ffffffffffffffffffffffffffffffffffffffff1673ffffffffffffffffffffffffffffffffffffffff1681526020018281526020019350505050600060405180830381600087803b15801561144157600080fd5b505af1158015611455573d6000803e3d6000fd5b505050506001915050949350505050565b6040518060e00160405280606081526020016000815260200160008152602001600073ffffffffffffffffffffffffffffffffffffffff168152602001600073ffffffffffffffffffffffffffffffffffffffff1681526020016000151581526020016000151581525090565b828054600181600116156101000203166002900490600052602060002090601f016020900481019282601f1061151457805160ff1916838001178555611542565b82800160010185558215611542579182015b82811115611541578251825591602001919060010190611526565b5b50905061154f9190611553565b5090565b61157591905b80821115611571576000816000905550600101611559565b5090565b9056fea2646970667358221220b34e340d7f5b6e6bc7c91f605dc3a55ff7c849628fa59433ae311f9d3f58ffc764736f6c63430006020033",
  "source": "pragma solidity  >=0.6.0;\n\nimport \"./MyNFT.sol\";\nimport \"@openzeppelin/contracts/token/ERC721/ERC721.sol\";\n\ncontract Auctions {\n\tAuction[] public auctions;\t\t//옥션을 저장하는 배열\n \tmapping(address => uint[]) public auctionOwner; \t//소유자 어드레스가 가지고 있는 토큰id\n    address public my_addr;\n\n\tstruct Auction {\n\t  string name; // 제목\n\t  uint256 price; // 가격\n\t//   string metadata; // 메타데이터 : ipfs hash\n\t  uint256 tokenId; // 토큰 아이디\n\t  address repoAddress; // nft 컨트랙트 어드레스\n\t  address owner; // 소유자\t(옥션 소유자)\t\t\t\n\t  bool active; //활성화 여부\n\t  bool finalized; //판매 종료여부\n\t}\n\tconstructor() public {\n\t\t\tmy_addr = msg.sender; // 현재 생성한 계정값.(주소형), 이 컨트랙의 주인은 현재 배포 계정이다. 라는 뜻.\n\t\t}\n\tfunction getBalance() public view returns (uint256) {\n\t\treturn my_addr.balance;\n\t\t}\n\n\tfallback() external {\n\t  revert();\n\t}\n\n\tmodifier contractIsNFTOwner(address _repoAddress, uint256 _tokenId) {\n\t//해당 contract가 특정 nft 소유권을 가지고 있는지 확인하는 modifier\n\t  address nftOwner = MyNFT(_repoAddress).ownerOf(_tokenId);\n\t  // import한 MyNFT에 contract address를 넣고, ownerOf(tokenId) 함수로 해당 토큰의 소유자 어드레스를 가져옴\n\t  require(nftOwner == address(this)); //require를 통해 일치하면 다음 프로세스 진행\n\t  // address(this)는 contract의 address 반환하는 함수\n\t  _;\n\t}\n\n\tfunction createAuction(address _repoAddress, uint256 _tokenId, string memory _auctionTitle, uint256 _price) public contractIsNFTOwner(_repoAddress, _tokenId) returns(bool) {\n\t\t// 새 auction을 생성하는 함수\n\t\tuint auctionId = auctions.length;\n\t\tAuction memory newAuction;\n\t\tnewAuction.name = _auctionTitle;\n\t\tnewAuction.price = _price;\n\t\t// newAuction.metadata = _metadata;\n\t\tnewAuction.tokenId = _tokenId;\n\t\tnewAuction.repoAddress = _repoAddress;\n\t\tnewAuction.owner = msg.sender;\n\t\tnewAuction.active = true;\n        newAuction.finalized = false;\n\n\t\tauctions.push(newAuction);\n\t\tauctionOwner[msg.sender].push(auctionId);\n\n\t\temit AuctionCreated(msg.sender, auctionId);\n\t\treturn true;\n\t}\n\n\tfunction finalizeAuction(uint _auctionId, address _to) public payable {\n\t\t//auction을 소유자에게 전달하는 함수\n\t\tAuction memory myAuction = auctions[_auctionId];\n\t\tif(approveAndTransfer(address(this), _to, myAuction.repoAddress, myAuction.tokenId)){\n\t\t\t//받는 어드레스에 소유권이 승인되고 전달되는 함수, 여기가 완료되면 해당 옥션의 상태가 종료로 바뀜\n\t\t\t//그 다음 auctionfinalized 이벤트를 송출함\n\t\t    auctions[_auctionId].active = false;\n\t\t    auctions[_auctionId].finalized = true;\n\t\t    emit AuctionFinalized(msg.sender, _auctionId);\n\t\t}\n\t\t\n\t\t//buyAuction();\n\t\temit AuctionPayed(msg.sender, myAuction.owner, myAuction.price);\n\t\t//옥션 소유자를 구매자 주소로 넣음\n\t\t//auctions[_auctionId].owner = msg.sender;\n\t}\n\n//***************************** 채연 테스트 함수 */\n\n   // blockchain에 저장되는 중요 함수.\n    function buyAuction( uint price) public payable {\n\t\t// owner = auction을 올린 계정\n        // _auctionId = msg.sender;\n        // owner에게 매입가를 전송함.\n\t\taddress _to = 0x80f9e0792e708aDA65FF57398b2a2A72709B948D;\n        //_to.transfer(msg.value); //이게 작동해서 첫번째 계정으로 송금되고, 두번째 계정이 깎임.\n        //emit LogBuyRealEstate(msg.sender, _id);\n\n    }\n\n\n\n//@@@@@@@@@@@@@@@@@@@@@@@@@@@@@@@@@@@@@@@@@@@@@@@@@@@@@@@@@@@@@@@@@@@@@@@@@@@@@@2\n\tfunction approveAndTransfer(address _from, address _to, address _repoAddress, uint256 _tokenId) internal returns(bool)  {\n\t\t// internal 함수, 컨트랙트 내부에서만 호출 가능\n\t\tMyNFT remoteContract = MyNFT(_repoAddress);\n\t\t// myNFT 컨트랙트에  컨트랙트 address를 넣고, 인스턴스를 가져온 후, 인스턴스의 approve(_to, _tokenId)를 통해 해당 토큰을 받는 어드레스(_to)를 승인\n\t\t// transferFrom을 통해 해당 어드레스로 전송한다.\n\t\tremoteContract.approve(_to, _tokenId);\n\t\tremoteContract.transferFrom(_from, _to, _tokenId);\n\t\t//remoteContract.transferFrom(_from, _to, _price);\n\t\treturn true;\n\t}\n\n    function getCount() public  returns(uint) {\n\t\treturn auctions.length;\n\t}\n\n\tfunction getAuctionsOf(address _owner) public  returns(uint[] memory) {\n\t\tuint[] memory ownedAuctions = auctionOwner[_owner];\n\t\treturn ownedAuctions;\n\t}\n\n\tfunction getAuctionsCountOfOwner(address _owner) public  returns(uint) {\n\t\treturn auctionOwner[_owner].length;\n\t}\n\n\tfunction getAuctionById(uint _auctionId) public  returns(\n\t\tstring memory name,\n\t\tuint256 price,\n\t\t// string metadata,\n\t\tuint256 tokenId,\n\t\taddress repoAddress,\n\t\taddress owner,\n\t\tbool active,\n\t\tbool finalized) {\n\t\tAuction memory auc = auctions[_auctionId];\n\t\treturn (\n\t\t\tauc.name,\n\t\t\tauc.price,\n\t\t\t// auc.metadata,\n\t\t\tauc.tokenId,\n\t\t\tauc.repoAddress,\n\t\t\tauc.owner,\n\t\t\tauc.active,\n\t\t\tauc.finalized);\n\t}\n\n\tevent AuctionPayed(address buyer, address seller, uint _price);\n\tevent AuctionCreated(address _owner, uint _auctionId);\n\tevent AuctionFinalized(address _owner, uint _auctionId); //거래가 끝난 후 송출되는 이벤트\n}\n",
  "sourcePath": "/Users/cona/Documents/SmartContract/contracts/Auctions.sol",
  "compiler": {
    "name": "solc",
    "version": "0.6.2+commit.bacdbe57.Emscripten.clang"
  },
  "schemaVersion": "3.2.3",
  "updatedAt": "2020-09-24T14:00:04.171Z",
  "networkType": "ethereum",
  "devdoc": {
    "methods": {}
  },
  "userdoc": {
    "methods": {}
  }
}