{
  "contractName": "Auctions",
  "abi": [
    {
      "constant": true,
      "inputs": [
        {
          "name": "",
          "type": "uint256"
        }
      ],
      "name": "auctions",
      "outputs": [
        {
          "name": "name",
          "type": "string"
        },
        {
          "name": "price",
          "type": "uint256"
        },
        {
          "name": "tokenId",
          "type": "uint256"
        },
        {
          "name": "repoAddress",
          "type": "address"
        },
        {
          "name": "owner",
          "type": "address"
        },
        {
          "name": "active",
          "type": "bool"
        },
        {
          "name": "finalized",
          "type": "bool"
        }
      ],
      "payable": false,
      "stateMutability": "view",
      "type": "function"
    },
    {
      "constant": true,
      "inputs": [],
      "name": "test_addr",
      "outputs": [
        {
          "name": "",
          "type": "address"
        }
      ],
      "payable": false,
      "stateMutability": "view",
      "type": "function"
    },
    {
      "constant": true,
      "inputs": [
        {
          "name": "",
          "type": "address"
        },
        {
          "name": "",
          "type": "uint256"
        }
      ],
      "name": "auctionOwner",
      "outputs": [
        {
          "name": "",
          "type": "uint256"
        }
      ],
      "payable": false,
      "stateMutability": "view",
      "type": "function"
    },
    {
      "constant": true,
      "inputs": [],
      "name": "my_addr",
      "outputs": [
        {
          "name": "",
          "type": "address"
        }
      ],
      "payable": false,
      "stateMutability": "view",
      "type": "function"
    },
    {
      "inputs": [],
      "payable": false,
      "stateMutability": "nonpayable",
      "type": "constructor"
    },
    {
      "payable": false,
      "stateMutability": "nonpayable",
      "type": "fallback"
    },
    {
      "anonymous": false,
      "inputs": [
        {
          "indexed": false,
          "name": "buyer",
          "type": "address"
        },
        {
          "indexed": false,
          "name": "seller",
          "type": "address"
        },
        {
          "indexed": false,
          "name": "_price",
          "type": "uint256"
        }
      ],
      "name": "AuctionPayed",
      "type": "event"
    },
    {
      "anonymous": false,
      "inputs": [
        {
          "indexed": false,
          "name": "_owner",
          "type": "address"
        },
        {
          "indexed": false,
          "name": "_auctionId",
          "type": "uint256"
        }
      ],
      "name": "AuctionCreated",
      "type": "event"
    },
    {
      "anonymous": false,
      "inputs": [
        {
          "indexed": false,
          "name": "_owner",
          "type": "address"
        },
        {
          "indexed": false,
          "name": "_auctionId",
          "type": "uint256"
        }
      ],
      "name": "AuctionFinalized",
      "type": "event"
    },
    {
      "constant": true,
      "inputs": [],
      "name": "getBalance",
      "outputs": [
        {
          "name": "",
          "type": "uint256"
        }
      ],
      "payable": false,
      "stateMutability": "view",
      "type": "function"
    },
    {
      "constant": false,
      "inputs": [
        {
          "name": "_repoAddress",
          "type": "address"
        },
        {
          "name": "_tokenId",
          "type": "uint256"
        },
        {
          "name": "_auctionTitle",
          "type": "string"
        },
        {
          "name": "_price",
          "type": "uint256"
        }
      ],
      "name": "createAuction",
      "outputs": [
        {
          "name": "",
          "type": "bool"
        }
      ],
      "payable": false,
      "stateMutability": "nonpayable",
      "type": "function"
    },
    {
      "constant": false,
      "inputs": [
        {
          "name": "_auctionId",
          "type": "uint256"
        },
        {
          "name": "_to",
          "type": "address"
        }
      ],
      "name": "finalizeAuction",
      "outputs": [],
      "payable": true,
      "stateMutability": "payable",
      "type": "function"
    },
    {
      "constant": false,
      "inputs": [
        {
          "name": "_auctionId",
          "type": "uint256"
        },
        {
          "name": "_to",
          "type": "address"
        },
        {
          "name": "price",
          "type": "uint256"
        }
      ],
      "name": "testFinalizeAuction",
      "outputs": [],
      "payable": true,
      "stateMutability": "payable",
      "type": "function"
    },
    {
      "constant": false,
      "inputs": [
        {
          "name": "price",
          "type": "uint256"
        }
      ],
      "name": "buyAuction",
      "outputs": [],
      "payable": true,
      "stateMutability": "payable",
      "type": "function"
    },
    {
      "constant": true,
      "inputs": [],
      "name": "getCount",
      "outputs": [
        {
          "name": "",
          "type": "uint256"
        }
      ],
      "payable": false,
      "stateMutability": "view",
      "type": "function"
    },
    {
      "constant": true,
      "inputs": [
        {
          "name": "_owner",
          "type": "address"
        }
      ],
      "name": "getAuctionsOf",
      "outputs": [
        {
          "name": "",
          "type": "uint256[]"
        }
      ],
      "payable": false,
      "stateMutability": "view",
      "type": "function"
    },
    {
      "constant": true,
      "inputs": [
        {
          "name": "_owner",
          "type": "address"
        }
      ],
      "name": "getAuctionsCountOfOwner",
      "outputs": [
        {
          "name": "",
          "type": "uint256"
        }
      ],
      "payable": false,
      "stateMutability": "view",
      "type": "function"
    },
    {
      "constant": true,
      "inputs": [
        {
          "name": "_auctionId",
          "type": "uint256"
        }
      ],
      "name": "getAuctionById",
      "outputs": [
        {
          "name": "name",
          "type": "string"
        },
        {
          "name": "price",
          "type": "uint256"
        },
        {
          "name": "tokenId",
          "type": "uint256"
        },
        {
          "name": "repoAddress",
          "type": "address"
        },
        {
          "name": "owner",
          "type": "address"
        },
        {
          "name": "active",
          "type": "bool"
        },
        {
          "name": "finalized",
          "type": "bool"
        }
      ],
      "payable": false,
      "stateMutability": "view",
      "type": "function"
    }
  ],
  "bytecode": "0x6080604052737ec286896d4b7e989baca850f7a081c0545201b6600360006101000a81548173ffffffffffffffffffffffffffffffffffffffff021916908373ffffffffffffffffffffffffffffffffffffffff16021790555034801561006557600080fd5b5033600260006101000a81548173ffffffffffffffffffffffffffffffffffffffff021916908373ffffffffffffffffffffffffffffffffffffffff160217905550611868806100b66000396000f3006080604052600436106100c5576000357c0100000000000000000000000000000000000000000000000000000000900463ffffffff16806312065fe0146100d75780631626b7591461010257806318111ada146101425780631ca8e78b14610272578063481ca8c4146102bc578063571a26a014610371578063a87d942c146104a1578063b1b61bfa146104cc578063b6dcf3cf14610564578063c8756cda146105bb578063d56aa5581461061c578063d69c8e1714610673578063fd8acc42146106ca575b3480156100d157600080fd5b50600080fd5b3480156100e357600080fd5b506100ec6106ea565b6040518082815260200191505060405180910390f35b61014060048036038101908080359060200190929190803573ffffffffffffffffffffffffffffffffffffffff16906020019092919050505061072b565b005b34801561014e57600080fd5b5061016d60048036038101908080359060200190929190505050610a98565b60405180806020018881526020018781526020018673ffffffffffffffffffffffffffffffffffffffff1673ffffffffffffffffffffffffffffffffffffffff1681526020018573ffffffffffffffffffffffffffffffffffffffff1673ffffffffffffffffffffffffffffffffffffffff1681526020018415151515815260200183151515158152602001828103825289818151815260200191508051906020019080838360005b83811015610231578082015181840152602081019050610216565b50505050905090810190601f16801561025e5780820380516001836020036101000a031916815260200191505b509850505050505050505060405180910390f35b6102ba60048036038101908080359060200190929190803573ffffffffffffffffffffffffffffffffffffffff16906020019092919080359060200190929190505050610cae565b005b3480156102c857600080fd5b50610357600480360381019080803573ffffffffffffffffffffffffffffffffffffffff16906020019092919080359060200190929190803590602001908201803590602001908080601f016020809104026020016040519081016040528093929190818152602001838380828437820191505050505050919291929080359060200190929190505050610e94565b604051808215151515815260200191505060405180910390f35b34801561037d57600080fd5b5061039c60048036038101908080359060200190929190505050611255565b60405180806020018881526020018781526020018673ffffffffffffffffffffffffffffffffffffffff1673ffffffffffffffffffffffffffffffffffffffff1681526020018573ffffffffffffffffffffffffffffffffffffffff1673ffffffffffffffffffffffffffffffffffffffff1681526020018415151515815260200183151515158152602001828103825289818151815260200191508051906020019080838360005b83811015610460578082015181840152602081019050610445565b50505050905090810190601f16801561048d5780820380516001836020036101000a031916815260200191505b509850505050505050505060405180910390f35b3480156104ad57600080fd5b506104b6611398565b6040518082815260200191505060405180910390f35b3480156104d857600080fd5b5061050d600480360381019080803573ffffffffffffffffffffffffffffffffffffffff1690602001909291905050506113a4565b6040518080602001828103825283818151815260200191508051906020019060200280838360005b83811015610550578082015181840152602081019050610535565b505050509050019250505060405180910390f35b34801561057057600080fd5b50610579611440565b604051808273ffffffffffffffffffffffffffffffffffffffff1673ffffffffffffffffffffffffffffffffffffffff16815260200191505060405180910390f35b3480156105c757600080fd5b50610606600480360381019080803573ffffffffffffffffffffffffffffffffffffffff16906020019092919080359060200190929190505050611466565b6040518082815260200191505060405180910390f35b34801561062857600080fd5b5061065d600480360381019080803573ffffffffffffffffffffffffffffffffffffffff169060200190929190505050611496565b6040518082815260200191505060405180910390f35b34801561067f57600080fd5b506106886114e2565b604051808273ffffffffffffffffffffffffffffffffffffffff1673ffffffffffffffffffffffffffffffffffffffff16815260200191505060405180910390f35b6106e860048036038101908080359060200190929190505050611508565b005b6000600260009054906101000a900473ffffffffffffffffffffffffffffffffffffffff1673ffffffffffffffffffffffffffffffffffffffff1631905090565b610733611729565b60008381548110151561074257fe5b906000526020600020906005020160e06040519081016040529081600082018054600181600116156101000203166002900480601f0160208091040260200160405190810160405280929190818152602001828054600181600116156101000203166002900480156107f55780601f106107ca576101008083540402835291602001916107f5565b820191906000526020600020905b8154815290600101906020018083116107d857829003601f168201915b5050505050815260200160018201548152602001600282015481526020016003820160009054906101000a900473ffffffffffffffffffffffffffffffffffffffff1673ffffffffffffffffffffffffffffffffffffffff1673ffffffffffffffffffffffffffffffffffffffff1681526020016004820160009054906101000a900473ffffffffffffffffffffffffffffffffffffffff1673ffffffffffffffffffffffffffffffffffffffff1673ffffffffffffffffffffffffffffffffffffffff1681526020016004820160149054906101000a900460ff161515151581526020016004820160159054906101000a900460ff161515151581525050905061090a30838360600151846040015161156c565b156109ec576000808481548110151561091f57fe5b906000526020600020906005020160040160146101000a81548160ff021916908315150217905550600160008481548110151561095857fe5b906000526020600020906005020160040160156101000a81548160ff0219169083151502179055507f357afab190ee87fe0ef1c717f2728d2904d9e415a069d99f4d9382873cb3279d3384604051808373ffffffffffffffffffffffffffffffffffffffff1673ffffffffffffffffffffffffffffffffffffffff1681526020018281526020019250505060405180910390a15b7ff21e4e6ae2bbd9bb251e47cec5bc13ba7683da6cd04eebb36f1074aa6b291eca3382608001518360200151604051808473ffffffffffffffffffffffffffffffffffffffff1673ffffffffffffffffffffffffffffffffffffffff1681526020018373ffffffffffffffffffffffffffffffffffffffff1673ffffffffffffffffffffffffffffffffffffffff168152602001828152602001935050505060405180910390a1505050565b6060600080600080600080610aab611729565b600089815481101515610aba57fe5b906000526020600020906005020160e06040519081016040529081600082018054600181600116156101000203166002900480601f016020809104026020016040519081016040528092919081815260200182805460018160011615610100020316600290048015610b6d5780601f10610b4257610100808354040283529160200191610b6d565b820191906000526020600020905b815481529060010190602001808311610b5057829003601f168201915b5050505050815260200160018201548152602001600282015481526020016003820160009054906101000a900473ffffffffffffffffffffffffffffffffffffffff1673ffffffffffffffffffffffffffffffffffffffff1673ffffffffffffffffffffffffffffffffffffffff1681526020016004820160009054906101000a900473ffffffffffffffffffffffffffffffffffffffff1673ffffffffffffffffffffffffffffffffffffffff1673ffffffffffffffffffffffffffffffffffffffff1681526020016004820160149054906101000a900460ff161515151581526020016004820160159054906101000a900460ff1615151515815250509050806000015181602001518260400151836060015184608001518560a001518660c00151869650975097509750975097509750975050919395979092949650565b610cb6611729565b600084815481101515610cc557fe5b906000526020600020906005020160e06040519081016040529081600082018054600181600116156101000203166002900480601f016020809104026020016040519081016040528092919081815260200182805460018160011615610100020316600290048015610d785780601f10610d4d57610100808354040283529160200191610d78565b820191906000526020600020905b815481529060010190602001808311610d5b57829003601f168201915b5050505050815260200160018201548152602001600282015481526020016003820160009054906101000a900473ffffffffffffffffffffffffffffffffffffffff1673ffffffffffffffffffffffffffffffffffffffff1673ffffffffffffffffffffffffffffffffffffffff1681526020016004820160009054906101000a900473ffffffffffffffffffffffffffffffffffffffff1673ffffffffffffffffffffffffffffffffffffffff1673ffffffffffffffffffffffffffffffffffffffff1681526020016004820160149054906101000a900460ff161515151581526020016004820160159054906101000a900460ff1615151515815250509050610e8d30848360600151846040015161156c565b5050505050565b600080610e9f611729565b868660008273ffffffffffffffffffffffffffffffffffffffff16636352211e836040518263ffffffff167c010000000000000000000000000000000000000000000000000000000002815260040180828152602001915050602060405180830381600087803b158015610f1257600080fd5b505af1158015610f26573d6000803e3d6000fd5b505050506040513d6020811015610f3c57600080fd5b810190808051906020019092919050505090503073ffffffffffffffffffffffffffffffffffffffff168173ffffffffffffffffffffffffffffffffffffffff16141515610f8957600080fd5b6000805490509450878460000181905250868460200181815250508884604001818152505089846060019073ffffffffffffffffffffffffffffffffffffffff16908173ffffffffffffffffffffffffffffffffffffffff168152505033846080019073ffffffffffffffffffffffffffffffffffffffff16908173ffffffffffffffffffffffffffffffffffffffff168152505060018460a001901515908115158152505060008460c001901515908115158152505060008490806001815401808255809150509060018203906000526020600020906005020160009091929091909150600082015181600001908051906020019061108a929190611797565b50602082015181600101556040820151816002015560608201518160030160006101000a81548173ffffffffffffffffffffffffffffffffffffffff021916908373ffffffffffffffffffffffffffffffffffffffff16021790555060808201518160040160006101000a81548173ffffffffffffffffffffffffffffffffffffffff021916908373ffffffffffffffffffffffffffffffffffffffff16021790555060a08201518160040160146101000a81548160ff02191690831515021790555060c08201518160040160156101000a81548160ff021916908315150217905550505050600160003373ffffffffffffffffffffffffffffffffffffffff1673ffffffffffffffffffffffffffffffffffffffff1681526020019081526020016000208590806001815401808255809150509060018203906000526020600020016000909192909190915055507f3249a06bd478adf780bb7930214ad005e9cfa517d63221c0b77f27199d1a58b33386604051808373ffffffffffffffffffffffffffffffffffffffff1673ffffffffffffffffffffffffffffffffffffffff1681526020018281526020019250505060405180910390a1600195505050505050949350505050565b60008181548110151561126457fe5b9060005260206000209060050201600091509050806000018054600181600116156101000203166002900480601f0160208091040260200160405190810160405280929190818152602001828054600181600116156101000203166002900480156113105780601f106112e557610100808354040283529160200191611310565b820191906000526020600020905b8154815290600101906020018083116112f357829003601f168201915b5050505050908060010154908060020154908060030160009054906101000a900473ffffffffffffffffffffffffffffffffffffffff16908060040160009054906101000a900473ffffffffffffffffffffffffffffffffffffffff16908060040160149054906101000a900460ff16908060040160159054906101000a900460ff16905087565b60008080549050905090565b606080600160008473ffffffffffffffffffffffffffffffffffffffff1673ffffffffffffffffffffffffffffffffffffffff16815260200190815260200160002080548060200260200160405190810160405280929190818152602001828054801561143057602002820191906000526020600020905b81548152602001906001019080831161141c575b5050505050905080915050919050565b600360009054906101000a900473ffffffffffffffffffffffffffffffffffffffff1681565b60016020528160005260406000208181548110151561148157fe5b90600052602060002001600091509150505481565b6000600160008373ffffffffffffffffffffffffffffffffffffffff1673ffffffffffffffffffffffffffffffffffffffff168152602001908152602001600020805490509050919050565b600260009054906101000a900473ffffffffffffffffffffffffffffffffffffffff1681565b60007380f9e0792e708ada65ff57398b2a2a72709b948d90508073ffffffffffffffffffffffffffffffffffffffff166108fc349081150290604051600060405180830381858888f19350505050158015611567573d6000803e3d6000fd5b505050565b6000808390508073ffffffffffffffffffffffffffffffffffffffff1663095ea7b386856040518363ffffffff167c0100000000000000000000000000000000000000000000000000000000028152600401808373ffffffffffffffffffffffffffffffffffffffff1673ffffffffffffffffffffffffffffffffffffffff16815260200182815260200192505050600060405180830381600087803b15801561161557600080fd5b505af1158015611629573d6000803e3d6000fd5b505050508073ffffffffffffffffffffffffffffffffffffffff166323b872dd8787866040518463ffffffff167c0100000000000000000000000000000000000000000000000000000000028152600401808473ffffffffffffffffffffffffffffffffffffffff1673ffffffffffffffffffffffffffffffffffffffff1681526020018373ffffffffffffffffffffffffffffffffffffffff1673ffffffffffffffffffffffffffffffffffffffff1681526020018281526020019350505050600060405180830381600087803b15801561170457600080fd5b505af1158015611718573d6000803e3d6000fd5b505050506001915050949350505050565b60e060405190810160405280606081526020016000815260200160008152602001600073ffffffffffffffffffffffffffffffffffffffff168152602001600073ffffffffffffffffffffffffffffffffffffffff1681526020016000151581526020016000151581525090565b828054600181600116156101000203166002900490600052602060002090601f016020900481019282601f106117d857805160ff1916838001178555611806565b82800160010185558215611806579182015b828111156118055782518255916020019190600101906117ea565b5b5090506118139190611817565b5090565b61183991905b8082111561183557600081600090555060010161181d565b5090565b905600a165627a7a7230582002b88d38b1eaae71440b48f0fb608ecd8d9f40d5b0bf692fb259a4c487f9b6b40029",
  "source": "pragma solidity ^0.4.23;\n\nimport \"./MyNFT.sol\";\n\ncontract Auctions {\n\tAuction[] public auctions;\t\t//옥션을 저장하는 배열\n \tmapping(address => uint[]) public auctionOwner; \t//소유자 어드레스가 가지고 있는 토큰id\n    address public my_addr;\n\taddress public test_addr = 0x7eC286896D4B7E989bAcA850f7a081C0545201b6;\n\n\tstruct Auction {\n\t  string name; // 제목\n\t  uint256 price; // 가격\n\t//   string metadata; // 메타데이터 : ipfs hash\n\t  uint256 tokenId; // 토큰 아이디\n\t  address repoAddress; // nft 컨트랙트 어드레스\n\t  address owner; // 소유자\t(옥션 소유자)\t\t\t\n\t  bool active; //활성화 여부\n\t  bool finalized; //판매 종료여부\n\t}\n\tconstructor() public {\n\t\t\tmy_addr = msg.sender; // 현재 생성한 계정값.(주소형), 이 컨트랙의 주인은 현재 배포 계정이다. 라는 뜻.\n\t\t}\n\tfunction getBalance() public view returns (uint256) {\n\t\treturn my_addr.balance;\n\t\t}\n\n\tfunction() public {\n\t  revert();\n\t}\n\n\tmodifier contractIsNFTOwner(address _repoAddress, uint256 _tokenId) {\n\t//해당 contract가 특정 nft 소유권을 가지고 있는지 확인하는 modifier\n\t  address nftOwner = MyNFT(_repoAddress).ownerOf(_tokenId);\n\t  // import한 MyNFT에 contract address를 넣고, ownerOf(tokenId) 함수로 해당 토큰의 소유자 어드레스를 가져옴\n\t  require(nftOwner == address(this)); //require를 통해 일치하면 다음 프로세스 진행\n\t  // address(this)는 contract의 address 반환하는 함수\n\t  _;\n\t}\n\n\tfunction createAuction(address _repoAddress, uint256 _tokenId, string _auctionTitle, uint256 _price) public contractIsNFTOwner(_repoAddress, _tokenId) returns(bool) {\n\t\t// 새 auction을 생성하는 함수\n\t\tuint auctionId = auctions.length;\n\t\tAuction memory newAuction;\n\t\tnewAuction.name = _auctionTitle;\n\t\tnewAuction.price = _price;\n\t\t// newAuction.metadata = _metadata;\n\t\tnewAuction.tokenId = _tokenId;\n\t\tnewAuction.repoAddress = _repoAddress;\n\t\tnewAuction.owner = msg.sender;\n\t\tnewAuction.active = true;\n        newAuction.finalized = false;\n\n\t\tauctions.push(newAuction);\n\t\tauctionOwner[msg.sender].push(auctionId);\n\n\t\temit AuctionCreated(msg.sender, auctionId);\n\t\treturn true;\n\t}\n\n\tfunction finalizeAuction(uint _auctionId, address _to) public payable {\n\t\t//auction을 소유자에게 전달하는 함수\n\t\tAuction memory myAuction = auctions[_auctionId];\n\t\tif(approveAndTransfer(address(this), _to, myAuction.repoAddress, myAuction.tokenId)){\n\t\t\t//받는 어드레스에 소유권이 승인되고 전달되는 함수, 여기가 완료되면 해당 옥션의 상태가 종료로 바뀜\n\t\t\t// @@@@@@@@@@@@@@@@@@@@여기에서 해당 옥션의 가격을 가져오고 이더리움 실제 거래가 되어야 함@@@@@@@@@@@@@@@@@\n\t\t\t//buyAuction(_auctionId, _to);\n\t\t\t//그 다음 auctionfinalized 이벤트를 송출함\n\t\t    auctions[_auctionId].active = false;\n\t\t    auctions[_auctionId].finalized = true;\n\t\t    emit AuctionFinalized(msg.sender, _auctionId);\n\t\t}\n\t\t\n\t\t//buyAuction();\n\t\temit AuctionPayed(msg.sender, myAuction.owner, myAuction.price);\n\t\t//옥션 소유자를 구매자 주소로 넣음\n\t\t//auctions[_auctionId].owner = msg.sender;\n\t}\n//***************************** 채연 테스트 함수 */\n\tfunction testFinalizeAuction(uint _auctionId, address _to, uint price) public payable{\n\t\t//auction을 소유자에게 전달하는 함수\n\t\tAuction memory myAuction = auctions[_auctionId];\n\t\tif(approveAndTransfer(address(this), _to, myAuction.repoAddress, myAuction.tokenId)){\n\t\t\t//받는 어드레스에 소유권이 승인되고 전달되는 함수, 여기가 완료되면 해당 옥션의 상태가 종료로 바뀜\n\t\t\t// @@@@@@@@@@@@@@@@@@@@여기에서 해당 옥션의 가격을 가져오고 이더리움 실제 거래가 되어야 함@@@@@@@@@@@@@@@@@\n\t\t\t//그 다음 auctionfinalized 이벤트를 송출함\n\t\t}\n\t}\n//***************************** 채연 테스트 함수 */\n\n   // blockchain에 저장되는 중요 함수.\n    function buyAuction( uint price) public payable {\n\t\t// owner = auction을 올린 계정\n        // _auctionId = msg.sender;\n        // owner에게 매입가를 전송함.\n\t\taddress _to = 0x80f9e0792e708aDA65FF57398b2a2A72709B948D;\n        _to.transfer(msg.value); //이게 작동해서 첫번째 계정으로 송금되고, 두번째 계정이 깎임.\n        //emit LogBuyRealEstate(msg.sender, _id);\n\n    }\n\n\n\n//@@@@@@@@@@@@@@@@@@@@@@@@@@@@@@@@@@@@@@@@@@@@@@@@@@@@@@@@@@@@@@@@@@@@@@@@@@@@@@2\n\tfunction approveAndTransfer(address _from, address _to, address _repoAddress, uint256 _tokenId) internal returns(bool)  {\n\t\t// internal 함수, 컨트랙트 내부에서만 호출 가능\n\t\tMyNFT remoteContract = MyNFT(_repoAddress);\n\t\t// myNFT 컨트랙트에  컨트랙트 address를 넣고, 인스턴스를 가져온 후, 인스턴스의 approve(_to, _tokenId)를 통해 해당 토큰을 받는 어드레스(_to)를 승인\n\t\t// transferFrom을 통해 해당 어드레스로 전송한다.\n\t\tremoteContract.approve(_to, _tokenId);\n\t\tremoteContract.transferFrom(_from, _to, _tokenId);\n\t\t//remoteContract.transferFrom(_from, _to, _price);\n\t\treturn true;\n\t}\n\n    function getCount() public constant returns(uint) {\n\t\treturn auctions.length;\n\t}\n\n\tfunction getAuctionsOf(address _owner) public constant returns(uint[]) {\n\t\tuint[] memory ownedAuctions = auctionOwner[_owner];\n\t\treturn ownedAuctions;\n\t}\n\n\tfunction getAuctionsCountOfOwner(address _owner) public constant returns(uint) {\n\t\treturn auctionOwner[_owner].length;\n\t}\n\n\tfunction getAuctionById(uint _auctionId) public constant returns(\n\t\tstring name,\n\t\tuint256 price,\n\t\t// string metadata,\n\t\tuint256 tokenId,\n\t\taddress repoAddress,\n\t\taddress owner,\n\t\tbool active,\n\t\tbool finalized) {\n\t\tAuction memory auc = auctions[_auctionId];\n\t\treturn (\n\t\t\tauc.name,\n\t\t\tauc.price,\n\t\t\t// auc.metadata,\n\t\t\tauc.tokenId,\n\t\t\tauc.repoAddress,\n\t\t\tauc.owner,\n\t\t\tauc.active,\n\t\t\tauc.finalized);\n\t}\n\n\tevent AuctionPayed(address buyer, address seller, uint _price);\n\tevent AuctionCreated(address _owner, uint _auctionId);\n\tevent AuctionFinalized(address _owner, uint _auctionId); //거래가 끝난 후 송출되는 이벤트\n}\n",
  "sourcePath": "/Users/cona/Documents/SmartContract/contracts/Auctions.sol",
  "compiler": {
    "name": "solc",
    "version": "0.4.24+commit.e67f0147.Emscripten.clang"
  },
  "schemaVersion": "3.2.3",
  "updatedAt": "2020-09-22T16:00:38.941Z",
  "networkType": "ethereum",
  "devdoc": {
    "methods": {}
  },
  "userdoc": {
    "methods": {}
  }
}